:020000040800F2
:10000000B8070020650100088B0100088D01000879
:1000100000000000000000000000000000000000E0
:100020000000000000000000000000008F01000838
:100030000000000000000000910100084D130008BE
:100040009501000895010008C10900089501000804
:100050009501000895010008950100089501000828
:1000600000000000950100089501000895010008B6
:1000700095010008950100080000000031140008F7
:100080000000000000000000000000000000000070
:100090009501000800000000000000009501000824
:1000A00000000000950100080000000000000000B2
:1000B0008515000895010008000000000000000000
:1000C00000F002F800F03EF80CA030C80838241800
:1000D0002D18A246671EAB4654465D46AC4201D180
:1000E00000F030F87E460F3E0FCCB6460126334274
:1000F00000D0FB1AA246AB4633431847B4180000A1
:10010000D4180000103A02D378C878C1FAD8520740
:1001100001D330C830C101D504680C6070470000BD
:100120000023002400250026103A01D378C1FBD813
:10013000520700D330C100D50B6070471FB51FBDFB
:1001400010B510BD00F01AF91146FFF7F7FF01F0E6
:10015000F9FB00F032F903B4FFF7F2FF03BC00F043
:1001600039F900000F4880F308880F480168090E2C
:100170000E4A914205D10E480E4901600E480F49C2
:1001800001600F4880470F480047FEE7FEE7FEE7A3
:10019000FEE7FEE7FEE700000B480C490C4A0D4B5A
:1001A00070470000B8070020040000001F00000096
:1001B0003410024001000000000001400000000077
:1001C000C9130008C1000008B8010020B8070020CA
:1001D000B8030020B803002030B5441C03E00178C8
:1001E000401C00290DD08107F9D10B4BDD0104C85B
:1001F000D11A91432940FAD0001B0A0603D0C01E31
:1002000030BD001B30BD0A0401D0801E30BD090284
:10021000FCD0401E30BD0000010101010022030995
:100220008B422CD3030A8B4211D300239C464EE011
:1002300003460B433CD4002243088B4231D30309CD
:100240008B421CD3030A8B4201D394463FE0C3097F
:100250008B4201D3CB01C01A524183098B4201D397
:100260008B01C01A524143098B4201D34B01C01A82
:10027000524103098B4201D30B01C01A5241C308FA
:100280008B4201D3CB00C01A524183088B4201D369
:100290008B00C01A524143088B4201D34B00C01A55
:1002A0005241411A00D201465241104670475DE06A
:1002B000CA0F00D04942031000D3404253400022ED
:1002C0009C4603098B422DD3030A8B4212D3FC2296
:1002D000890112BA030A8B420CD3890192118B4215
:1002E00008D3890192118B4204D389013AD092112B
:1002F00000E08909C3098B4201D3CB01C01A5241E6
:1003000083098B4201D38B01C01A524143098B42AE
:1003100001D34B01C01A524103098B4201D30B0197
:10032000C01A5241C3088B4201D3CB00C01A5241BC
:1003300083088B4201D38B00C01A5241D9D24308A3
:100340008B4201D34B00C01A5241411A00D20146E0
:10035000634652415B10104601D34042002B00D54A
:100360004942704763465B1000D3404201B500200C
:10037000C046C04602BD704770477047754600F0E2
:1003800025F8AE46050069465346C008C0008546BC
:1003900018B020B5FFF700FF60BC00274908B6463B
:1003A0000026C0C5C0C5C0C5C0C5C0C5C0C5C0C584
:1003B000C0C5403D49008D46704710B50446C04653
:1003C000C0462046FFF7C7FE10BD0000004870473A
:1003D0005401002001491820ABBEFEE726000200B0
:1003E000704700001E488068400840001C49886033
:1003F0001C48406B491508431A49486318488068EF
:10040000C007C00F002805D01548806802210843A6
:10041000134988601348C06A012108431149C86222
:100420000F484069022108430D4948610846806A27
:10043000022108430A4988620B4880680121890526
:100440000843094988600648C068491408430449BC
:10045000C8600846806801210843014988607047E8
:100460000024014000100240002701400520000741
:100470000068094908430521090708600748006822
:100480000020C04305490860054800680020C043BB
:100490000349086070470000FFFCFFEB00040050B8
:1004A0000008005070B5002600243E48007800285F
:1004B0006ED13D480078002802D0012039490870EB
:1004C000002508E000F0BEF90646A419FA2001F064
:1004D00029F9681CC5B2282DF4DB28212046FFF736
:1004E0009DFE0446314884422CD93048FA3084427B
:1004F0000CD2052000078069FF2101310843052146
:100500000907886141202A49087036E00520000764
:100510008069FF21013108430521090788616420B2
:1005200001F000F905200007806AFF21013108432E
:10053000052109078862642001F0F4F842201C4973
:1005400008701AE0052000078069FF210131084387
:10055000052109078861642001F0E4F805200007FF
:10056000806AFF2101310843052109078862642060
:1005700001F0D8F842200E4908700B480078002896
:1005800001D100BFFEE70A48007800F0F5F907E066
:100590007D20C00001F0C6F80548007800F0ECF9B5
:1005A00070BD0000360000201B000020DC050000AC
:1005B0003700002010B5002401F0B6F9002833D030
:1005C00001F090F804463A2C14D004DC1A2C07D021
:1005D0002A2C1ED109E04A2C11D05A2C19D113E033
:1005E00001241B2000F0C8F918E002242B2000F0A1
:1005F000C3F913E003243B2000F0BEF90EE004240D
:100600004B2000F0B9F909E005245B2000F0B4F9B3
:1006100004E00024FF2000F0AFF900BF00BF642019
:1006200001F080F8204610BD0020FCE705200007FF
:10063000806A102108430521090788620846806AFC
:10064000FF21013108430521090788620846806AB5
:100650000121C903084305210907886200200249D6
:1006600008700249087070473600002037000020EB
:1006700010480068012108430E49086000BF0D487A
:100680000068042108400428F9D10A48C068012103
:1006900008430849C86000BF0648C06804210840F4
:1006A0000428F9D10348C0680249C8600720C8621D
:1006B000C86370470010024010B50446230000F0E4
:1006C000B7FF06041D272A2D303305200007806A56
:1006D000FF21013108430521090788620846806A25
:1006E000102108430521090788620846806A012114
:1006F000C903084305210907886215E00B48007803
:10070000002802D000F028FA01E000F0CBF80BE05E
:1007100000F0D2F808E000F0C7FE05E0FFF7C2FEE7
:1007200002E000F0EDF900BF00BF10BD1B0000208B
:1007300010B500F0C1FD2048406B012108431E495F
:1007400048631E480069042108431C4908611C488D
:100750000068022188431A490860084600680121A0
:100760000904084316490860084600680121084347
:1007700013490860084600680421084310490860CE
:1007800008460068082108430D49086008460068CB
:10079000491508430A49086000200A49486100F0E9
:1007A0003BF90548C0680121C90308430249C860F4
:1007B000FFF75CFE10BD00000010024000ED00E0FD
:1007C00000700040000401401C480078FF281BD145
:1007D0001B48006980210840002813D1052000072C
:1007E00000690821084000280AD105200007006997
:1007F000C007C00F002801D1012070470020FCE78E
:100800000020FAE70020F8E70C480088102801D102
:100810000220F2E709480088202801D10320ECE7F4
:1008200006480088402801D10420E6E703480088F4
:10083000802801D10520E0E70020DEE72800002025
:100840000004005070B500250524002013490880DD
:1008500013488068042108431149886000BF10E0F4
:1008600000BF0F480068042108400028F9D00C4858
:100870004030006809490988401808490880681C08
:10088000C5B2A542ECDB214604480088FFF7D0FC46
:10089000024908800846008870BD0000180000204A
:1008A00000240140052000078069FF210131084331
:1008B000052109078861704710B5FFF739FF30BF80
:1008C00000F096FC10BD0FB4F8B5002507A8009005
:1008D000002442E00698005D0A280BD10D2000F0AC
:1008E0004BF84019C5B20699085D00F045F840196B
:1008F000C5B230E00698005D252826D1601C069917
:10090000085C64280AD100980188001D8EB200900E
:10091000304600F02BFF601CC4B21CE0601C06993E
:10092000085C78280AD100980188001D8EB20090DA
:10093000F0B200F0D1FF601CC4B20CE00699085D73
:1009400000F01AF84019C5B205E00699085D00F0FC
:1009500013F84019C5B2601CC4B20698FFF73CFCFE
:10096000A042B7D800200090A54203DAF8BC08BC2A
:1009700004B018470120F9E702460D480188481CD9
:1009800081B2802900DB00210A48008881420DD015
:100990000948074B1B88C254054801800748006876
:1009A00080231843054B1860012070470020FCE7A6
:1009B0003C00002040000020D30000200044004004
:1009C0001348C068FF210131084088420BD110480C
:1009D000C06888430E49C8600E4840690121490437
:1009E00008430C4948610A48C0680121890208404F
:1009F00088420BD10648C06888430549C86005484D
:100A00004069012109050843024948617047000017
:100A1000002800400004014010B53548006801215D
:100A20000905084332490860084680680121090524
:100A300008432F4988600846C0680121090588439A
:100A40002B49C8602B48806B890408432949886377
:100A5000294800688915084327490860254840301F
:100A600000690121084323494031086100BF214842
:100A700040300069022108400228F8D11D4840306A
:100A80000069090408431B494031086108460069B0
:100A9000012189040843174940310861CA201749D8
:100AA0004862532048620846806809158843134904
:100AB000886000BF1148C068042108400428F9D1AB
:100AC000FF20F5300D4948610846806811218902F0
:100AD00008430A498860FE20486264204862002179
:100AE000022000F0C3FD022000F0B0FD10BD0000A8
:100AF0000004014000100240007000400028004047
:100B000010B510480078002802D10FA0FFF7DBFED7
:100B1000052000078069FF210131084305210907ED
:100B2000886100F085FA05200007806AFF21013105
:100B300008430521090788627D20000100F0F2FDCD
:100B400010BD00001B0000200D0A52616E67652079
:100B50005465737421000000294800690121C9030C
:100B6000084000284AD10520000700698911084083
:100B7000002843D1052000070069490008400028EB
:100B80003CD12048006920210840002836D11D486A
:100B9000006910210840002830D11A480069082156
:100BA000084000282AD1174800690221084000287F
:100BB00024D10520000700690421084000281DD128
:100BC0001048006980210840002817D1052000073F
:100BD0000069C007C00F002810D105200007006978
:100BE00008210840002809D1052000078069490133
:100BF0000843052109078861012070470020FCE7B0
:100C0000000800500004005010B5052000070069DE
:100C1000F7490880F74800690121C9030840002806
:100C20001BD1F548017801208840F4490988084320
:100C3000F2490880F2480078F1490870F1480078DC
:100C400000281AD0F0480078012816D00120FFF7BC
:100C500093FE0120EC4908700FE0E748017801207D
:100C60008840E64909888143E4480180E4480078E7
:100C7000E34908700020E449087005200007006976
:100C800001214902084000281BD1E04801780120D9
:100C90008840DA4909880843D8490880D84840780C
:100CA000D7494870D748007800281AD0D6484078ED
:100CB000012816D00220FFF75FFE0120D2494870BC
:100CC0000FE0D248017801208840CC49098881434F
:100CD000CA480180CA484078C94948700020CA49BA
:100CE000487005200007006901218902084000289A
:100CF0001BD1C748017801208840C04909880843B2
:100D0000BE490880BE488078BD498870BD480078DB
:100D100000281AD0BC488078012816D00320FFF79D
:100D20002BFE0120B84988700FE0B94801780120F6
:100D30008840B24909888143B0480180B048C078F2
:100D4000AF4988700020B0498870B24800692021FE
:100D5000084000281BD1B048017801208840A749ED
:100D600009880843A5490880A548C078A449C870E7
:100D7000A448007800281AD0A348C078012816D0CB
:100D80000420FFF7F9FD01209F49C8700FE0A24839
:100D9000017801208840994909888143974801805A
:100DA0009748C0789649C87000209749C8709948FC
:100DB00000691021084000281BD1984801780120C3
:100DC00088408E49098808438C49088001208C4955
:100DD00008718C48007800281BD08B4800790128C6
:100DE00017D00520FFF7C8FD8548007986490871AE
:100DF0000FE08A48017801208840804909888143B2
:100E00007E48018000207E490871084600797E49AD
:100E10000871804800690821084000281BD18048DB
:100E20000178012088407549098808437349088082
:100E300073484079724948717248007800281AD086
:100E400071484079012816D00620FFF795FD012052
:100E50006D4948710FE07248017801208840674968
:100E60000988814365480180654840796449487133
:100E70000020654948716748006902210840002840
:100E80001CD168480178012088405C4909880843E2
:100E90005A4908805A4880795949887159480078D8
:100EA000002819D058488079012815D00720FFF76D
:100EB00063FD53488079544988710DE059480178A1
:100EC000012088404D49098881434C480180002019
:100ED0004B4988714C49887105200007006904213D
:100EE000084000281BD15048017801208840434920
:100EF00009880843414908804148C0794049C87180
:100F00004048007800281AD03F48C079012816D000
:100F10000820FFF731FD01203B49C8710FE042482E
:100F20000178012088403549098881433348018090
:100F30003348C0793249C87100203349C8713B48F1
:100F400000684008012801D12D49C872052000071A
:100F50000069C007C00F00280ED12A480078002879
:100F60000DD02948007A012809D00920FFF704FD97
:100F700001202549087202E0002023490872254813
:100F800000698021084000280ED11E480078002802
:100F90000DD01D48407A012809D00A20FFF7ECFC4B
:100FA00001201949487202E00020174948720520C3
:100FB000000700690821084000280ED11148007878
:100FC00000280DD01048807A012809D00B20FFF7A7
:100FD000D3FC01200C49887202E000200A49887283
:100FE00008480078002802D0642000F09BFB10BD68
:100FF00038000020000800501C00002028000020BD
:101000002A0000201B000020480000201D000020B6
:101010001E000020000400501F00002020000020BF
:1010200021000020220000202300002008000020D2
:1010300010B50023002200240520000700690821C4
:101040000840002801D13C2400E0142405200007BA
:101050008069102108430521090788614B20C000E1
:1010600000F07AFB002383E0002265E05248805CB8
:10107000012830D10520000780690121C9030843F8
:101080000521090788613C2000F066FB0520000768
:10109000806A0121C90308430521090788621A20D3
:1010A00000F05AFB0520000780690121C9030843AD
:1010B0000521090788613C2000F04EFB0520000750
:1010C000806A0121C90308430521090788621A20A3
:1010D00000F042FB2FE00520000780690121C903D1
:1010E0000843052109078861122000F035FB05201F
:1010F0000007806A0121C9030843052109078862A6
:10110000442000F029FB0520000780690121C90364
:1011100008430521090788613C2000F01DFB0520DC
:101120000007806A0121C903084305210907886275
:101130001A2000F011FB521C0C2A97DB0520000737
:1011400080690121C903084305210907886112202C
:1011500000F002FB05200007806A0121C903084353
:10116000052109078862A520800000F0F5FA5B1CC4
:10117000A34200DA78E78F2000F0EEFA052000079E
:1011800080690121C90308430521090788611A20E4
:1011900000F0E2FA05200007806A0121C903084334
:1011A0000521090788620846806A10210843052145
:1011B0000907886210BD00002A00002000210A49AA
:1011C000002000BF0DE00A460241D207D20F002ADC
:1011D00003D00122054B1A5402E00022034B1A549B
:1011E000401C0B28EFDB70471F0000002A00002086
:1011F00010B5FFF73DFA00200521090708600846F1
:101200000068264908430521090708600846406828
:10121000486008468068224908430521090788601C
:101220000846C0681F49084305210907C860002017
:101230001D49086008460068086008464068486024
:101240000846806819490843174988600846C068FD
:10125000174908431449C860002016490860084629
:1012600000680860084640684860084680680321B6
:10127000890708430F4988600846C068C9040843C5
:101280000C49C86000F07AF8FFF7ACF800F0F6F807
:10129000E120400200F022F910BD00000C0D0140D9
:1012A000F3033FC05100140000040050CCCF0000F5
:1012B000444500000008005020488068012189054D
:1012C00088431E4988601E488068102108431C49D5
:1012D000886000BF1A488068102108401028F9D0A3
:1012E0001748806802210843154988601548406BFB
:1012F00049158843134948631148806840084000F5
:101300000F49886000BF0E488068C007C00F0028E2
:10131000F9D10120800700684008400001218907B9
:1013200008600848806B0121084306498863064825
:1013300000694008400004490861704700270140E7
:10134000002401400010024000E000E0094800686D
:10135000002804D007480068401E06490860064877
:101360000068002804D004480068401E0249086054
:1013700070470000000000201400002010B500BFDE
:101380000D490E480068FEF749FF0446601E0C49EF
:10139000884201D901200CE0601E0A4948610321FE
:1013A000081F00F063F900200649886107200861E2
:1013B00000200028E4D110BD1027000044000020C8
:1013C000FFFFFF0000E000E015480068FF21013149
:1013D0000843134908600846C0681249084010498C
:1013E000C86008460068104908400D490860084672
:1013F0008068400840008860084600680121890430
:101400008843074908600846C068FD2109048843ED
:101410000349C86000200861C80304498860704718
:10142000001002400C40FF88F6FFF6FE00ED00E0E1
:10143000012080070069C007C00F002819D00120D3
:1014400080070069400840000121890708610948B8
:101450000088002804D007480088401E05490880FD
:1014600005480088002804D003480088401E02492F
:10147000088070470E0000201000002010B50948B9
:10148000806B01210843074988637D2080010106A4
:1014900088620120C862C86008600F2000F0D6F89A
:1014A00010BD0000001002400520000780691021D7
:1014B0000843052109078861084680690121C9039D
:1014C000084305210907886108468069FF21013129
:1014D00008430521090788617047000010B50446DC
:1014E0000520000700680F218904884305210907AA
:1014F0000860084600684912084349020860084627
:10150000406AFF210901884305210907486208460E
:10151000406A1121890108430521090748621748DB
:10152000806B012149040843144988630020144951
:101530000860486088600846006820210843104918
:10154000086008460068C91308430D490860FF2079
:101550001730C860084600680C2108430849086035
:1015600008460068012108430549086000211C2045
:1015700000F07CF81C2000F069F810BD001002405B
:101580000044004010B50021224AD26920231A40AD
:10159000202A19D11F4A516A1F4A1078421CD0B222
:1015A0004006400E1D4A128890420DD01C4B1A4C2A
:1015B00024881955184A1288521C174B1A801A464B
:1015C00012785206520E1A80124AD26980231A40AB
:1015D000802A1DD1134A1288134B1B889A4211D0BE
:1015E000124A104B1B88D25C0A4B9A620D4A128831
:1015F000521C0C4B1A801A461288802A08DB0022E3
:101600001A8005E0034A126880239A43014B1A604E
:1016100010BD0000004400403A0000203E000020C1
:1016200053000020400000203C000020D300002098
:1016300030B47446641E2578641CAB4204D3635DE9
:101640005B00E31830BC18471D46F8E7002809DBAB
:1016500000BF00BFC206D20E01219140024A1160B4
:1016600000BF00BF7047000000E100E010B5002897
:1016700019DB1A4A03231B02D21883089B00D25895
:101680008307DC0EFF23A3409A438B071B0E8407BE
:10169000E40EA3401A43114B032424021B198408AF
:1016A000A4001A5118E00E4A03071B0F083B9B08C1
:1016B0009B00D2588307DC0EFF23A3409A438B077D
:1016C0001B0E8407E40EA3401A43054B0407240FA6
:1016D000083CA408A4001A5110BD000000E100E07D
:1016E0001CED00E00C4800880C4A1288904201D1A1
:1016F000002070470A48084A1288815C0648008822
:10170000401C054A108010460088802801DB00201C
:1017100010800846EDE700003E0000203A0000205F
:101720005300002064214143034A116000BF024975
:1017300009680029FBD1704714000020002106E051
:10174000002200E0521C034B9A42FBD3491C814209
:10175000F6D37047641900000349086000BF0249CE
:1017600009680029FBD1704700000020F1B584B062
:10177000002456490498FEF751FDC0B20390534926
:101780000498FEF74BFD049103983030C0B20390EB
:101790000398302803D124200390012400E0002482
:1017A0004B490498FEF73AFDC0B2029048490498AC
:1017B000FEF734FD049102983030C0B202900298D6
:1017C000302805D1002C03D024200290012400E011
:1017D000002440490498FEF721FDC5B23D49049814
:1017E000FEF71CFD049128463030C5B2302D04D1DF
:1017F000002C02D02425012400E000247D21C90012
:101800000498FEF70BFDC6B27D21C9000498FEF7CF
:1018100005FD049130463030C6B2302E04D1002C84
:1018200002D02426012400E0002464210498FEF75D
:10183000F5FCC7B264210498FEF7F0FC0491384629
:101840003030C7B2302F04D1002C02D0242701241D
:1018500000E000240A210498FEF7E0FCC0B20190E9
:101860000A210498FEF7DAFC049101983030C0B2E6
:1018700001900198302804D1002C02D0242001903E
:1018800001240498C0B2009000983030C0B200909B
:10189000242D02D02846FFF76FF8242E02D03046C0
:1018A000FFF76AF8242F02D03846FFF765F8019851
:1018B000242802D00198FFF75FF80098242802D06E
:1018C0000098FFF759F805B0F0BD000040420F0046
:1018D000A08601001027000070B50646F0203040B9
:1018E00004462411092C06DD20460A38C4B22046DD
:1018F0004130C4B202E020463030C4B235072D0F6B
:10190000092D06DD28460A38C5B228464130C5B241
:1019100002E028463030C5B22046FFF72DF82846B1
:10192000FFF72AF870BD00000448008804490988C0
:10193000884201D0012070470020FCE73A000020D7
:101940003E0000200025FFF753FCFFF737FC2BE09B
:1019500016480078002808D1FFF756F9FEF734FF43
:1019600004462046FEF7A8FE1EE0002D09D1FEF732
:1019700021FE0446002C17D001253220FFF7DEFEA1
:1019800012E005200007006904210840002808D063
:10199000FEF74CFE002521010C31C8B2FEF7ECFF2A
:1019A00002E02046FEF788FED2E700001B00002080
:1019B000D0190008000000204800000004010008C1
:1019C000181A0008480000207007000020010008D5
:1019D0000000000000000000000000000000000007
:1019E00000000000000000000000000000010203F1
:1019F0000405060708090A000000000101010101B1
:101A000001010000000000000000000000000000D4
:081A10000000000080841E00AC
:040000050800016589
:00000001FF
